:020000040000FA
:100000000C945C000C946E000C946E000C946E00CA
:100010000C946E000C946E000C946E000C946E00A8
:100020000C946E000C946E000C946E000C946E0098
:100030000C946E000C946E000C946E000C946E0088
:100040000C9496010C946E000C946E000C946E004F
:100050000C946E000C946E000C946E000C946E0068
:100060000C946E000C946E00000000080002010069
:100070000003040700000000000000000000000072
:10008000250028002B0000000000240027002A0083
:10009000040404040404040402020202020203032E
:1000A0000303030301020408102040800102040836
:1000B000102001020408102011241FBECFEFD8E049
:1000C000DEBFCDBF21E0A0E0B1E001C01D92A531AF
:1000D000B207E1F70E94E0010C94BD030C9400000C
:1000E00090E0FC01EC55FF4F249180579F4FFC019D
:1000F0008491882399F090E0880F991FFC01EA57BA
:10010000FF4FA591B491FC01E458FF4F8591949164
:100110008FB7F894EC91E22BEC938FBF089590E0A9
:10012000FC01E859FF4F2491FC01EC55FF4F34913D
:10013000FC01E057FF4FE491EE23C9F0222339F090
:10014000233001F1A8F4213019F1223029F1F0E037
:10015000EE0FFF1FE458FF4FA591B4918FB7F894AD
:10016000EC91611126C030953E233C938FBF0895DA
:100170002730A9F02830C9F0243049F78091800059
:100180008F7D03C0809180008F7780938000DFCFC8
:1001900084B58F7784BDDBCF84B58F7DFBCF809115
:1001A000B0008F778093B000D2CF8091B0008F7D68
:1001B000F9CF3E2BDACFAF92BF92CF92DF92EF9280
:1001C000FF920F931F93CF93DF938C01FC01C081AB
:1001D000D1818091090190910A01C81BD90B85E05A
:1001E0008C9FB0018D9F700D1124072E000C880B81
:1001F000990B0E94310320E030E040E05FE3D7FD3F
:100200003DC00E948D020E94F902EB01FF24F3948D
:100210001C161D060CF4F12C6F2D85E00E948F003A
:100220006F2D85E00E948F00F12CE12CAA24BB24C5
:10023000AC1ABD0A8BEBC82E82E1D82ECE01D7FDB9
:10024000C501E816F906ECF461E082E00E948F0037
:1002500061E083E00E948F00C6010197F1F760E042
:1002600082E00E948F0060E083E00E948F00C60160
:100270000197F1F7FFEFEF1AFF0AE0CF0E948C021F
:10028000C2CFF8014481558166817781808591854F
:10029000A285B385008111812281338100930901F8
:1002A00010930A0120930B0130930C0140930D0130
:1002B00050930E0160930F01709310018093110110
:1002C00090931201A0931301B0931401DF91CF9189
:1002D0001F910F91FF90EF90DF90CF90BF90AF9064
:1002E00008953FB7F8948091050190910601A0917F
:1002F0000701B091080126B5A89B05C02F3F19F052
:100300000196A11DB11D3FBFBA2FA92F982F882795
:10031000BC01CD01620F711D811D911D42E0660F70
:10032000771F881F991F4A95D1F708951F920F9242
:100330000FB60F9211242F933F938F939F93AF93F8
:10034000BF938091010190910201A0910301B091AE
:1003500004013091000123E0230F2D3758F5019659
:10036000A11DB11D20930001809301019093020112
:10037000A0930301B09304018091050190910601BF
:10038000A0910701B09108010196A11DB11D8093B4
:10039000050190930601A0930701B0930801BF9156
:1003A000AF919F918F913F912F910F900FBE0F9022
:1003B0001F90189526E8230F0296A11DB11DD2CFDC
:1003C000CF93DF93CDB7DEB72C970FB6F894DEBF8F
:1003D0000FBECDBF789484B5826084BD84B5816042
:1003E00084BD85B5826085BD85B5816085BD809100
:1003F0006E00816080936E00109281008091810078
:10040000826080938100809181008160809381006F
:10041000809180008160809380008091B100846031
:100420008093B1008091B00081608093B000809192
:100430007A00846080937A0080917A008260809351
:100440007A0080917A00816080937A0080917A00AE
:10045000806880937A001092C10082E00E94700050
:1004600085E00E94700084E00E94700087E00E9496
:10047000700082E00E94700086E00E9470008CE2B2
:1004800091E0A0E0B0E089839A83AB83BC831D82B6
:100490001E821F82188619861A861B861C86CE012C
:1004A00001960E94DB000E9471014B015C0180ED0E
:1004B000C82E87E0D82EE12CF12C0E94710168191A
:1004C00079098A099B09683E734081059105A8F363
:1004D00021E0C21AD108E108F10888EE880E83E015
:1004E000981EA11CB11CC114D104E104F10429F728
:1004F00019821A821B821C821D821E821F8218860C
:10050000CE0101960E94DB0000E010E0011511050C
:10051000E9F30E940000FACF5058BB27AA270E9497
:10052000A4020C9483030E94750338F00E947C039C
:1005300020F039F49F3F19F426F40C9472030EF462
:10054000E095E7FB0C946C03E92F0E94940358F3A9
:10055000BA17620773078407950720F079F4A6F5A8
:100560000C94B6030EF4E0950B2EBA2FA02D0B01C0
:10057000B90190010C01CA01A0011124FF27591BE8
:1005800099F0593F50F4503E68F11A16F040A22FEE
:10059000232F342F4427585FF3CF4695379527955F
:1005A000A795F0405395C9F77EF41F16BA0B620B5E
:1005B000730B840BBAF09150A1F0FF0FBB1F661FA5
:1005C000771F881FC2F70EC0BA0F621F731F841FE8
:1005D00048F4879577956795B795F7959E3F08F00E
:1005E000B0CF9395880F08F09927EE0F97958795D0
:1005F00008950E9400036894B1110C94B703089504
:100600000E949C0388F09F5798F0B92F9927B75103
:10061000B0F0E1F0660F771F881F991F1AF0BA95A6
:10062000C9F714C0B13091F00E94B603B1E008954B
:100630000C94B603672F782F8827B85F39F0B93F3D
:10064000CCF3869577956795B395D9F73EF4909559
:100650008095709561957F4F8F4F9F4F0895E894D7
:1006600009C097FB3EF490958095709561957F4FFA
:100670008F4F9F4F9923A9F0F92F96E9BB279395A8
:10068000F695879577956795B795F111F8CFFAF4B8
:10069000BB0F11F460FF1BC06F5F7F4F8F4F9F4FE9
:1006A00016C0882311F096E911C0772321F09EE847
:1006B000872F762F05C0662371F096E8862F70E0AD
:1006C00060E02AF09A95660F771F881FDAF7880F87
:1006D0009695879597F9089597F99F6780E870E058
:1006E00060E008959FEF80EC089500240A941616A8
:1006F000170618060906089500240A941216130610
:10070000140605060895092E0394000C11F488239D
:1007100052F0BB0F40F4BF2B11F460FF04C06F5FB9
:100720007F4F8F4F9F4F089557FD9058440F551F8F
:1007300059F05F3F71F04795880F97FB991F61F063
:100740009F3F79F087950895121613061406551FDA
:10075000F2CF4695F1DF08C0161617061806991F46
:10076000F1CF86957105610508940895E894BB273B
:0E07700066277727CB0197F90895F894FFCFFD
:107E0000112484B714BE81FFF0D085E080938100F7
:107E100082E08093C00088E18093C10086E0809377
:107E2000C20080E18093C4008EE0C9D0259A86E02C
:107E300020E33CEF91E0309385002093840096BBD3
:107E4000B09BFECF1D9AA8958150A9F7CC24DD24C4
:107E500088248394B5E0AB2EA1E19A2EF3E0BF2EE7
:107E6000A2D0813461F49FD0082FAFD0023811F036
:107E7000013811F484E001C083E08DD089C08234E0
:107E800011F484E103C0853419F485E0A6D080C0E4
:107E9000853579F488D0E82EFF2485D0082F10E0AE
:107EA000102F00270E291F29000F111F8ED06801E7
:107EB0006FC0863521F484E090D080E0DECF843638
:107EC00009F040C070D06FD0082F6DD080E0C81688
:107ED00080E7D80618F4F601B7BEE895C0E0D1E017
:107EE00062D089930C17E1F7F0E0CF16F0E7DF06D8
:107EF00018F0F601B7BEE89568D007B600FCFDCFD4
:107F0000A601A0E0B1E02C9130E011968C91119780
:107F100090E0982F8827822B932B1296FA010C0160
:107F200087BEE89511244E5F5F4FF1E0A038BF0790
:107F300051F7F601A7BEE89507B600FCFDCF97BE46
:107F4000E89526C08437B1F42ED02DD0F82E2BD052
:107F50003CD0F601EF2C8F010F5F1F4F84911BD097
:107F6000EA94F801C1F70894C11CD11CFA94CF0C13
:107F7000D11C0EC0853739F428D08EE10CD085E9AC
:107F80000AD08FE07ACF813511F488E018D01DD067
:107F900080E101D065CF982F8091C00085FFFCCF94
:107FA0009093C60008958091C00087FFFCCF809118
:107FB000C00084FD01C0A8958091C6000895E0E648
:107FC000F0E098E1908380830895EDDF803219F02E
:107FD00088E0F5DFFFCF84E1DECF1F93182FE3DFCA
:107FE0001150E9F7F2DF1F91089580E0E8DFEE27F6
:047FF000FF270994CA
:027FFE00040479
:00000001FF
